{
  "_format": "hh-sol-artifact-1",
  "contractName": "FypToken",
  "sourceName": "smart_contract/contracts/fyp_token.sol",
  "abi": [
    {
      "inputs": [],
      "stateMutability": "nonpayable",
      "type": "constructor"
    },
    {
      "anonymous": false,
      "inputs": [
        {
          "indexed": true,
          "internalType": "address",
          "name": "owner",
          "type": "address"
        },
        {
          "indexed": true,
          "internalType": "address",
          "name": "approved",
          "type": "address"
        },
        {
          "indexed": true,
          "internalType": "uint256",
          "name": "tokenId",
          "type": "uint256"
        }
      ],
      "name": "Approval",
      "type": "event"
    },
    {
      "anonymous": false,
      "inputs": [
        {
          "indexed": true,
          "internalType": "address",
          "name": "owner",
          "type": "address"
        },
        {
          "indexed": true,
          "internalType": "address",
          "name": "operator",
          "type": "address"
        },
        {
          "indexed": false,
          "internalType": "bool",
          "name": "approved",
          "type": "bool"
        }
      ],
      "name": "ApprovalForAll",
      "type": "event"
    },
    {
      "anonymous": false,
      "inputs": [
        {
          "indexed": true,
          "internalType": "address",
          "name": "previousOwner",
          "type": "address"
        },
        {
          "indexed": true,
          "internalType": "address",
          "name": "newOwner",
          "type": "address"
        }
      ],
      "name": "OwnershipTransferred",
      "type": "event"
    },
    {
      "anonymous": false,
      "inputs": [
        {
          "indexed": true,
          "internalType": "address",
          "name": "from",
          "type": "address"
        },
        {
          "indexed": true,
          "internalType": "address",
          "name": "to",
          "type": "address"
        },
        {
          "indexed": true,
          "internalType": "uint256",
          "name": "tokenId",
          "type": "uint256"
        }
      ],
      "name": "Transfer",
      "type": "event"
    },
    {
      "anonymous": false,
      "inputs": [
        {
          "indexed": false,
          "internalType": "uint256",
          "name": "value",
          "type": "uint256"
        }
      ],
      "name": "return_uint256",
      "type": "event"
    },
    {
      "inputs": [
        {
          "internalType": "address",
          "name": "to",
          "type": "address"
        },
        {
          "internalType": "uint256",
          "name": "tokenId",
          "type": "uint256"
        }
      ],
      "name": "approve",
      "outputs": [],
      "stateMutability": "nonpayable",
      "type": "function"
    },
    {
      "inputs": [
        {
          "internalType": "address",
          "name": "owner",
          "type": "address"
        }
      ],
      "name": "balanceOf",
      "outputs": [
        {
          "internalType": "uint256",
          "name": "",
          "type": "uint256"
        }
      ],
      "stateMutability": "view",
      "type": "function"
    },
    {
      "inputs": [
        {
          "internalType": "uint256",
          "name": "token_id",
          "type": "uint256"
        }
      ],
      "name": "company_address",
      "outputs": [
        {
          "internalType": "address",
          "name": "",
          "type": "address"
        }
      ],
      "stateMutability": "view",
      "type": "function"
    },
    {
      "inputs": [
        {
          "internalType": "uint256",
          "name": "tokenId",
          "type": "uint256"
        }
      ],
      "name": "getApproved",
      "outputs": [
        {
          "internalType": "address",
          "name": "",
          "type": "address"
        }
      ],
      "stateMutability": "view",
      "type": "function"
    },
    {
      "inputs": [
        {
          "internalType": "address",
          "name": "owner",
          "type": "address"
        },
        {
          "internalType": "address",
          "name": "operator",
          "type": "address"
        }
      ],
      "name": "isApprovedForAll",
      "outputs": [
        {
          "internalType": "bool",
          "name": "",
          "type": "bool"
        }
      ],
      "stateMutability": "view",
      "type": "function"
    },
    {
      "inputs": [
        {
          "internalType": "string",
          "name": "message",
          "type": "string"
        },
        {
          "internalType": "address",
          "name": "_address_1",
          "type": "address"
        },
        {
          "internalType": "uint8",
          "name": "v_1",
          "type": "uint8"
        },
        {
          "internalType": "bytes32",
          "name": "r_1",
          "type": "bytes32"
        },
        {
          "internalType": "bytes32",
          "name": "s_1",
          "type": "bytes32"
        },
        {
          "internalType": "address",
          "name": "_address_2",
          "type": "address"
        },
        {
          "internalType": "uint8",
          "name": "v_2",
          "type": "uint8"
        },
        {
          "internalType": "bytes32",
          "name": "r_2",
          "type": "bytes32"
        },
        {
          "internalType": "bytes32",
          "name": "s_2",
          "type": "bytes32"
        }
      ],
      "name": "isSigned",
      "outputs": [
        {
          "internalType": "bool",
          "name": "",
          "type": "bool"
        }
      ],
      "stateMutability": "pure",
      "type": "function"
    },
    {
      "inputs": [
        {
          "internalType": "string",
          "name": "message",
          "type": "string"
        },
        {
          "internalType": "address",
          "name": "_employer",
          "type": "address"
        },
        {
          "internalType": "uint8",
          "name": "v_1",
          "type": "uint8"
        },
        {
          "internalType": "bytes32",
          "name": "r_1",
          "type": "bytes32"
        },
        {
          "internalType": "bytes32",
          "name": "s_1",
          "type": "bytes32"
        },
        {
          "internalType": "address",
          "name": "_candidate",
          "type": "address"
        },
        {
          "internalType": "uint8",
          "name": "v_2",
          "type": "uint8"
        },
        {
          "internalType": "bytes32",
          "name": "r_2",
          "type": "bytes32"
        },
        {
          "internalType": "bytes32",
          "name": "s_2",
          "type": "bytes32"
        }
      ],
      "name": "mint",
      "outputs": [],
      "stateMutability": "nonpayable",
      "type": "function"
    },
    {
      "inputs": [],
      "name": "name",
      "outputs": [
        {
          "internalType": "string",
          "name": "",
          "type": "string"
        }
      ],
      "stateMutability": "view",
      "type": "function"
    },
    {
      "inputs": [],
      "name": "owner",
      "outputs": [
        {
          "internalType": "address",
          "name": "",
          "type": "address"
        }
      ],
      "stateMutability": "view",
      "type": "function"
    },
    {
      "inputs": [
        {
          "internalType": "uint256",
          "name": "tokenId",
          "type": "uint256"
        }
      ],
      "name": "ownerOf",
      "outputs": [
        {
          "internalType": "address",
          "name": "",
          "type": "address"
        }
      ],
      "stateMutability": "view",
      "type": "function"
    },
    {
      "inputs": [],
      "name": "renounceOwnership",
      "outputs": [],
      "stateMutability": "nonpayable",
      "type": "function"
    },
    {
      "inputs": [
        {
          "internalType": "address",
          "name": "from",
          "type": "address"
        },
        {
          "internalType": "address",
          "name": "to",
          "type": "address"
        },
        {
          "internalType": "uint256",
          "name": "tokenId",
          "type": "uint256"
        }
      ],
      "name": "safeTransferFrom",
      "outputs": [],
      "stateMutability": "nonpayable",
      "type": "function"
    },
    {
      "inputs": [
        {
          "internalType": "address",
          "name": "from",
          "type": "address"
        },
        {
          "internalType": "address",
          "name": "to",
          "type": "address"
        },
        {
          "internalType": "uint256",
          "name": "tokenId",
          "type": "uint256"
        },
        {
          "internalType": "bytes",
          "name": "data",
          "type": "bytes"
        }
      ],
      "name": "safeTransferFrom",
      "outputs": [],
      "stateMutability": "nonpayable",
      "type": "function"
    },
    {
      "inputs": [
        {
          "internalType": "address",
          "name": "operator",
          "type": "address"
        },
        {
          "internalType": "bool",
          "name": "approved",
          "type": "bool"
        }
      ],
      "name": "setApprovalForAll",
      "outputs": [],
      "stateMutability": "nonpayable",
      "type": "function"
    },
    {
      "inputs": [
        {
          "internalType": "bytes4",
          "name": "interfaceId",
          "type": "bytes4"
        }
      ],
      "name": "supportsInterface",
      "outputs": [
        {
          "internalType": "bool",
          "name": "",
          "type": "bool"
        }
      ],
      "stateMutability": "view",
      "type": "function"
    },
    {
      "inputs": [],
      "name": "symbol",
      "outputs": [
        {
          "internalType": "string",
          "name": "",
          "type": "string"
        }
      ],
      "stateMutability": "view",
      "type": "function"
    },
    {
      "inputs": [
        {
          "internalType": "uint256",
          "name": "token_id",
          "type": "uint256"
        },
        {
          "internalType": "uint8",
          "name": "v_1",
          "type": "uint8"
        },
        {
          "internalType": "bytes32",
          "name": "r_1",
          "type": "bytes32"
        },
        {
          "internalType": "bytes32",
          "name": "s_1",
          "type": "bytes32"
        }
      ],
      "name": "terminate",
      "outputs": [],
      "stateMutability": "nonpayable",
      "type": "function"
    },
    {
      "inputs": [
        {
          "internalType": "uint256",
          "name": "token_id",
          "type": "uint256"
        }
      ],
      "name": "terminate_time",
      "outputs": [
        {
          "internalType": "uint256",
          "name": "",
          "type": "uint256"
        }
      ],
      "stateMutability": "view",
      "type": "function"
    },
    {
      "inputs": [
        {
          "internalType": "uint256",
          "name": "tokenId",
          "type": "uint256"
        }
      ],
      "name": "tokenURI",
      "outputs": [
        {
          "internalType": "string",
          "name": "",
          "type": "string"
        }
      ],
      "stateMutability": "view",
      "type": "function"
    },
    {
      "inputs": [
        {
          "internalType": "address",
          "name": "from",
          "type": "address"
        },
        {
          "internalType": "address",
          "name": "to",
          "type": "address"
        },
        {
          "internalType": "uint256",
          "name": "tokenId",
          "type": "uint256"
        }
      ],
      "name": "transferFrom",
      "outputs": [],
      "stateMutability": "nonpayable",
      "type": "function"
    },
    {
      "inputs": [
        {
          "internalType": "address",
          "name": "newOwner",
          "type": "address"
        }
      ],
      "name": "transferOwnership",
      "outputs": [],
      "stateMutability": "nonpayable",
      "type": "function"
    }
  ],
  "bytecode": "0x60806040523480156200001157600080fd5b506040518060400160405280600881526020017f467970546f6b656e0000000000000000000000000000000000000000000000008152506040518060400160405280600881526020017f467970546f6b656e00000000000000000000000000000000000000000000000081525081600090816200008f919062000412565b508060019081620000a1919062000412565b505050620000c4620000b8620000ca60201b60201c565b620000d260201b60201c565b620004f9565b600033905090565b6000600760009054906101000a900473ffffffffffffffffffffffffffffffffffffffff16905081600760006101000a81548173ffffffffffffffffffffffffffffffffffffffff021916908373ffffffffffffffffffffffffffffffffffffffff1602179055508173ffffffffffffffffffffffffffffffffffffffff168173ffffffffffffffffffffffffffffffffffffffff167f8be0079c531659141344cd1fd0a4f28419497f9722a3daafe3b4186f6b6457e060405160405180910390a35050565b600081519050919050565b7f4e487b7100000000000000000000000000000000000000000000000000000000600052604160045260246000fd5b7f4e487b7100000000000000000000000000000000000000000000000000000000600052602260045260246000fd5b600060028204905060018216806200021a57607f821691505b60208210810362000230576200022f620001d2565b5b50919050565b60008190508160005260206000209050919050565b60006020601f8301049050919050565b600082821b905092915050565b6000600883026200029a7fffffffffffffffffffffffffffffffffffffffffffffffffffffffffffffffff826200025b565b620002a686836200025b565b95508019841693508086168417925050509392505050565b6000819050919050565b6000819050919050565b6000620002f3620002ed620002e784620002be565b620002c8565b620002be565b9050919050565b6000819050919050565b6200030f83620002d2565b620003276200031e82620002fa565b84845462000268565b825550505050565b600090565b6200033e6200032f565b6200034b81848462000304565b505050565b5b8181101562000373576200036760008262000334565b60018101905062000351565b5050565b601f821115620003c2576200038c8162000236565b62000397846200024b565b81016020851015620003a7578190505b620003bf620003b6856200024b565b83018262000350565b50505b505050565b600082821c905092915050565b6000620003e760001984600802620003c7565b1980831691505092915050565b6000620004028383620003d4565b9150826002028217905092915050565b6200041d8262000198565b67ffffffffffffffff811115620004395762000438620001a3565b5b62000445825462000201565b6200045282828562000377565b600060209050601f8311600181146200048a576000841562000475578287015190505b620004818582620003f4565b865550620004f1565b601f1984166200049a8662000236565b60005b82811015620004c4578489015182556001820191506020850194506020810190506200049d565b86831015620004e45784890151620004e0601f891682620003d4565b8355505b6001600288020188555050505b505050505050565b61377d80620005096000396000f3fe608060405234801561001057600080fd5b50600436106101375760003560e01c8063715018a6116100b8578063b8188a1b1161007c578063b8188a1b14610338578063b88d4fde14610368578063c87b56dd14610384578063e985e9c5146103b4578063f2fde38b146103e4578063ff2474641461040057610137565b8063715018a6146102a657806376bb547a146102b05780638da5cb5b146102e057806395d89b41146102fe578063a22cb4651461031c57610137565b806342842e0e116100ff57806342842e0e146101f25780635fc04c6a1461020e5780636352211e1461022a578063703744da1461025a57806370a082311461027657610137565b806301ffc9a71461013c57806306fdde031461016c578063081812fc1461018a578063095ea7b3146101ba57806323b872dd146101d6575b600080fd5b6101566004803603810190610151919061227b565b610430565b60405161016391906122c3565b60405180910390f35b610174610512565b604051610181919061236e565b60405180910390f35b6101a4600480360381019061019f91906123c6565b6105a4565b6040516101b19190612434565b60405180910390f35b6101d460048036038101906101cf919061247b565b6105ea565b005b6101f060048036038101906101eb91906124bb565b610701565b005b61020c600480360381019061020791906124bb565b610761565b005b610228600480360381019061022391906126b2565b610781565b005b610244600480360381019061023f91906123c6565b610907565b6040516102519190612434565b60405180910390f35b610274600480360381019061026f9190612798565b61098d565b005b610290600480360381019061028b91906127ff565b610c0e565b60405161029d919061283b565b60405180910390f35b6102ae610cc5565b005b6102ca60048036038101906102c591906126b2565b610cd9565b6040516102d791906122c3565b60405180910390f35b6102e8610e65565b6040516102f59190612434565b60405180910390f35b610306610e8f565b604051610313919061236e565b60405180910390f35b61033660048036038101906103319190612882565b610f21565b005b610352600480360381019061034d91906123c6565b610f37565b60405161035f9190612434565b60405180910390f35b610382600480360381019061037d9190612963565b610f74565b005b61039e600480360381019061039991906123c6565b610fd6565b6040516103ab919061236e565b60405180910390f35b6103ce60048036038101906103c991906129e6565b6110e8565b6040516103db91906122c3565b60405180910390f35b6103fe60048036038101906103f991906127ff565b61117c565b005b61041a600480360381019061041591906123c6565b6111ff565b604051610427919061283b565b60405180910390f35b60007f80ac58cd000000000000000000000000000000000000000000000000000000007bffffffffffffffffffffffffffffffffffffffffffffffffffffffff1916827bffffffffffffffffffffffffffffffffffffffffffffffffffffffff191614806104fb57507f5b5e139f000000000000000000000000000000000000000000000000000000007bffffffffffffffffffffffffffffffffffffffffffffffffffffffff1916827bffffffffffffffffffffffffffffffffffffffffffffffffffffffff1916145b8061050b575061050a8261121c565b5b9050919050565b60606000805461052190612a55565b80601f016020809104026020016040519081016040528092919081815260200182805461054d90612a55565b801561059a5780601f1061056f5761010080835404028352916020019161059a565b820191906000526020600020905b81548152906001019060200180831161057d57829003601f168201915b5050505050905090565b60006105af82611286565b6004600083815260200190815260200160002060009054906101000a900473ffffffffffffffffffffffffffffffffffffffff169050919050565b60006105f582610907565b90508073ffffffffffffffffffffffffffffffffffffffff168373ffffffffffffffffffffffffffffffffffffffff1603610665576040517f08c379a000000000000000000000000000000000000000000000000000000000815260040161065c90612af8565b60405180910390fd5b8073ffffffffffffffffffffffffffffffffffffffff166106846112d1565b73ffffffffffffffffffffffffffffffffffffffff1614806106b357506106b2816106ad6112d1565b6110e8565b5b6106f2576040517f08c379a00000000000000000000000000000000000000000000000000000000081526004016106e990612b8a565b60405180910390fd5b6106fc83836112d9565b505050565b61071261070c6112d1565b82611392565b610751576040517f08c379a000000000000000000000000000000000000000000000000000000000815260040161074890612c1c565b60405180910390fd5b61075c838383611427565b505050565b61077c83838360405180602001604052806000815250610f74565b505050565b610792898989898989898989610cd9565b156108c3576107a16008611720565b60006107ad6008611736565b90506000600b600083815260200190815260200160002060006101000a81548160ff0219169083151502179055506107e58582611744565b6107ef818b611961565b6000600960008381526020019081526020016000208190555088600a600083815260200190815260200160002060006101000a81548173ffffffffffffffffffffffffffffffffffffffff021916908373ffffffffffffffffffffffffffffffffffffffff1602179055506001600b600083815260200190815260200160002060006101000a81548160ff0219169083151502179055507f22b8a135c27d3ca38ffb7b41891f617df5364b8f71f8e73fae0df0026fb44d92816040516108b5919061283b565b60405180910390a1506108fc565b7f22b8a135c27d3ca38ffb7b41891f617df5364b8f71f8e73fae0df0026fb44d9260006040516108f39190612c81565b60405180910390a15b505050505050505050565b600080610913836119ce565b9050600073ffffffffffffffffffffffffffffffffffffffff168173ffffffffffffffffffffffffffffffffffffffff1603610984576040517f08c379a000000000000000000000000000000000000000000000000000000000815260040161097b90612ce8565b60405180910390fd5b80915050919050565b6000429050600061099d86611a0b565b6040516020016109ad9190612d44565b604051602081830303815290604052905060006040518060400160405280601a81526020017f19457468657265756d205369676e6564204d6573736167653a0a00000000000081525090506000610a048351611a0b565b90506000828285604051602001610a1d93929190612d5b565b604051602081830303815290604052805190602001209050610a3e89611ad9565b8015610a5d57506000600960008b815260200190815260200160002054145b8015610b765750610a6d89610f37565b73ffffffffffffffffffffffffffffffffffffffff166001828a8a8a60405160008152602001604052604051610aa69493929190612daa565b6020604051602081039080840390855afa158015610ac8573d6000803e3d6000fd5b5050506020604051035173ffffffffffffffffffffffffffffffffffffffff161480610b755750610af889610907565b73ffffffffffffffffffffffffffffffffffffffff166001828a8a8a60405160008152602001604052604051610b319493929190612daa565b6020604051602081039080840390855afa158015610b53573d6000803e3d6000fd5b5050506020604051035173ffffffffffffffffffffffffffffffffffffffff16145b5b15610bcb5784600960008b8152602001908152602001600020819055507f22b8a135c27d3ca38ffb7b41891f617df5364b8f71f8e73fae0df0026fb44d9285604051610bc2919061283b565b60405180910390a15b7f22b8a135c27d3ca38ffb7b41891f617df5364b8f71f8e73fae0df0026fb44d926000604051610bfb9190612c81565b60405180910390a1505050505050505050565b60008073ffffffffffffffffffffffffffffffffffffffff168273ffffffffffffffffffffffffffffffffffffffff1603610c7e576040517f08c379a0000000000000000000000000000000000000000000000000000000008152600401610c7590612e61565b60405180910390fd5b600360008373ffffffffffffffffffffffffffffffffffffffff1673ffffffffffffffffffffffffffffffffffffffff168152602001908152602001600020549050919050565b610ccd611b1a565b610cd76000611b98565b565b6000806040518060400160405280601a81526020017f19457468657265756d205369676e6564204d6573736167653a0a00000000000081525090506000610d208c51611a0b565b9050600082828e604051602001610d3993929190612d5b565b6040516020818303038152906040528051906020012090508b73ffffffffffffffffffffffffffffffffffffffff166001828d8d8d60405160008152602001604052604051610d8b9493929190612daa565b6020604051602081039080840390855afa158015610dad573d6000803e3d6000fd5b5050506020604051035173ffffffffffffffffffffffffffffffffffffffff16148015610e5357508773ffffffffffffffffffffffffffffffffffffffff1660018289898960405160008152602001604052604051610e0f9493929190612daa565b6020604051602081039080840390855afa158015610e31573d6000803e3d6000fd5b5050506020604051035173ffffffffffffffffffffffffffffffffffffffff16145b93505050509998505050505050505050565b6000600760009054906101000a900473ffffffffffffffffffffffffffffffffffffffff16905090565b606060018054610e9e90612a55565b80601f0160208091040260200160405190810160405280929190818152602001828054610eca90612a55565b8015610f175780601f10610eec57610100808354040283529160200191610f17565b820191906000526020600020905b815481529060010190602001808311610efa57829003601f168201915b5050505050905090565b610f33610f2c6112d1565b8383611c5e565b5050565b6000600a600083815260200190815260200160002060009054906101000a900473ffffffffffffffffffffffffffffffffffffffff169050919050565b610f85610f7f6112d1565b83611392565b610fc4576040517f08c379a0000000000000000000000000000000000000000000000000000000008152600401610fbb90612c1c565b60405180910390fd5b610fd084848484611dca565b50505050565b6060610fe182611286565b600060066000848152602001908152602001600020805461100190612a55565b80601f016020809104026020016040519081016040528092919081815260200182805461102d90612a55565b801561107a5780601f1061104f5761010080835404028352916020019161107a565b820191906000526020600020905b81548152906001019060200180831161105d57829003601f168201915b50505050509050600061108b611e26565b905060008151036110a05781925050506110e3565b6000825111156110d55780826040516020016110bd929190612e81565b604051602081830303815290604052925050506110e3565b6110de84611e3d565b925050505b919050565b6000600560008473ffffffffffffffffffffffffffffffffffffffff1673ffffffffffffffffffffffffffffffffffffffff16815260200190815260200160002060008373ffffffffffffffffffffffffffffffffffffffff1673ffffffffffffffffffffffffffffffffffffffff16815260200190815260200160002060009054906101000a900460ff16905092915050565b611184611b1a565b600073ffffffffffffffffffffffffffffffffffffffff168173ffffffffffffffffffffffffffffffffffffffff16036111f3576040517f08c379a00000000000000000000000000000000000000000000000000000000081526004016111ea90612f17565b60405180910390fd5b6111fc81611b98565b50565b600060096000838152602001908152602001600020549050919050565b60007f01ffc9a7000000000000000000000000000000000000000000000000000000007bffffffffffffffffffffffffffffffffffffffffffffffffffffffff1916827bffffffffffffffffffffffffffffffffffffffffffffffffffffffff1916149050919050565b61128f81611ad9565b6112ce576040517f08c379a00000000000000000000000000000000000000000000000000000000081526004016112c590612ce8565b60405180910390fd5b50565b600033905090565b816004600083815260200190815260200160002060006101000a81548173ffffffffffffffffffffffffffffffffffffffff021916908373ffffffffffffffffffffffffffffffffffffffff160217905550808273ffffffffffffffffffffffffffffffffffffffff1661134c83610907565b73ffffffffffffffffffffffffffffffffffffffff167f8c5be1e5ebec7d5bd14f71427d1e84f3dd0314c0f7b2291e5b200ac8c7c3b92560405160405180910390a45050565b60008061139e83610907565b90508073ffffffffffffffffffffffffffffffffffffffff168473ffffffffffffffffffffffffffffffffffffffff1614806113e057506113df81856110e8565b5b8061141e57508373ffffffffffffffffffffffffffffffffffffffff16611406846105a4565b73ffffffffffffffffffffffffffffffffffffffff16145b91505092915050565b8273ffffffffffffffffffffffffffffffffffffffff1661144782610907565b73ffffffffffffffffffffffffffffffffffffffff161461149d576040517f08c379a000000000000000000000000000000000000000000000000000000000815260040161149490612fa9565b60405180910390fd5b600073ffffffffffffffffffffffffffffffffffffffff168273ffffffffffffffffffffffffffffffffffffffff160361150c576040517f08c379a00000000000000000000000000000000000000000000000000000000081526004016115039061303b565b60405180910390fd5b6115198383836001611ea5565b8273ffffffffffffffffffffffffffffffffffffffff1661153982610907565b73ffffffffffffffffffffffffffffffffffffffff161461158f576040517f08c379a000000000000000000000000000000000000000000000000000000000815260040161158690612fa9565b60405180910390fd5b6004600082815260200190815260200160002060006101000a81549073ffffffffffffffffffffffffffffffffffffffff02191690556001600360008573ffffffffffffffffffffffffffffffffffffffff1673ffffffffffffffffffffffffffffffffffffffff168152602001908152602001600020600082825403925050819055506001600360008473ffffffffffffffffffffffffffffffffffffffff1673ffffffffffffffffffffffffffffffffffffffff16815260200190815260200160002060008282540192505081905550816002600083815260200190815260200160002060006101000a81548173ffffffffffffffffffffffffffffffffffffffff021916908373ffffffffffffffffffffffffffffffffffffffff160217905550808273ffffffffffffffffffffffffffffffffffffffff168473ffffffffffffffffffffffffffffffffffffffff167fddf252ad1be2c89b69c2b068fc378daa952ba7f163c4a11628f55a4df523b3ef60405160405180910390a461171b8383836001611f0c565b505050565b6001816000016000828254019250508190555050565b600081600001549050919050565b600073ffffffffffffffffffffffffffffffffffffffff168273ffffffffffffffffffffffffffffffffffffffff16036117b3576040517f08c379a00000000000000000000000000000000000000000000000000000000081526004016117aa906130a7565b60405180910390fd5b6117bc81611ad9565b156117fc576040517f08c379a00000000000000000000000000000000000000000000000000000000081526004016117f390613113565b60405180910390fd5b61180a600083836001611ea5565b61181381611ad9565b15611853576040517f08c379a000000000000000000000000000000000000000000000000000000000815260040161184a90613113565b60405180910390fd5b6001600360008473ffffffffffffffffffffffffffffffffffffffff1673ffffffffffffffffffffffffffffffffffffffff16815260200190815260200160002060008282540192505081905550816002600083815260200190815260200160002060006101000a81548173ffffffffffffffffffffffffffffffffffffffff021916908373ffffffffffffffffffffffffffffffffffffffff160217905550808273ffffffffffffffffffffffffffffffffffffffff16600073ffffffffffffffffffffffffffffffffffffffff167fddf252ad1be2c89b69c2b068fc378daa952ba7f163c4a11628f55a4df523b3ef60405160405180910390a461195d600083836001611f0c565b5050565b61196a82611ad9565b6119a9576040517f08c379a00000000000000000000000000000000000000000000000000000000081526004016119a0906131a5565b60405180910390fd5b806006600084815260200190815260200160002090816119c99190613367565b505050565b60006002600083815260200190815260200160002060009054906101000a900473ffffffffffffffffffffffffffffffffffffffff169050919050565b606060006001611a1a84611f12565b01905060008167ffffffffffffffff811115611a3957611a38612518565b5b6040519080825280601f01601f191660200182016040528015611a6b5781602001600182028036833780820191505090505b509050600082602001820190505b600115611ace578080600190039150507f3031323334353637383961626364656600000000000000000000000000000000600a86061a8153600a8581611ac257611ac1613439565b5b04945060008503611a79575b819350505050919050565b60008073ffffffffffffffffffffffffffffffffffffffff16611afb836119ce565b73ffffffffffffffffffffffffffffffffffffffff1614159050919050565b611b226112d1565b73ffffffffffffffffffffffffffffffffffffffff16611b40610e65565b73ffffffffffffffffffffffffffffffffffffffff1614611b96576040517f08c379a0000000000000000000000000000000000000000000000000000000008152600401611b8d906134b4565b60405180910390fd5b565b6000600760009054906101000a900473ffffffffffffffffffffffffffffffffffffffff16905081600760006101000a81548173ffffffffffffffffffffffffffffffffffffffff021916908373ffffffffffffffffffffffffffffffffffffffff1602179055508173ffffffffffffffffffffffffffffffffffffffff168173ffffffffffffffffffffffffffffffffffffffff167f8be0079c531659141344cd1fd0a4f28419497f9722a3daafe3b4186f6b6457e060405160405180910390a35050565b8173ffffffffffffffffffffffffffffffffffffffff168373ffffffffffffffffffffffffffffffffffffffff1603611ccc576040517f08c379a0000000000000000000000000000000000000000000000000000000008152600401611cc390613520565b60405180910390fd5b80600560008573ffffffffffffffffffffffffffffffffffffffff1673ffffffffffffffffffffffffffffffffffffffff16815260200190815260200160002060008473ffffffffffffffffffffffffffffffffffffffff1673ffffffffffffffffffffffffffffffffffffffff16815260200190815260200160002060006101000a81548160ff0219169083151502179055508173ffffffffffffffffffffffffffffffffffffffff168373ffffffffffffffffffffffffffffffffffffffff167f17307eab39ab6107e8899845ad3d59bd9653f200f220920489ca2b5937696c3183604051611dbd91906122c3565b60405180910390a3505050565b611dd5848484611427565b611de184848484612065565b611e20576040517f08c379a0000000000000000000000000000000000000000000000000000000008152600401611e17906135b2565b60405180910390fd5b50505050565b606060405180602001604052806000815250905090565b6060611e4882611286565b6000611e52611e26565b90506000815111611e725760405180602001604052806000815250611e9d565b80611e7c84611a0b565b604051602001611e8d929190612e81565b6040516020818303038152906040525b915050919050565b600b600083815260200190815260200160002060009054906101000a900460ff1615611f06576040517f08c379a0000000000000000000000000000000000000000000000000000000008152600401611efd90613644565b60405180910390fd5b50505050565b50505050565b600080600090507a184f03e93ff9f4daa797ed6e38ed64bf6a1f0100000000000000008310611f70577a184f03e93ff9f4daa797ed6e38ed64bf6a1f0100000000000000008381611f6657611f65613439565b5b0492506040810190505b6d04ee2d6d415b85acef81000000008310611fad576d04ee2d6d415b85acef81000000008381611fa357611fa2613439565b5b0492506020810190505b662386f26fc100008310611fdc57662386f26fc100008381611fd257611fd1613439565b5b0492506010810190505b6305f5e1008310612005576305f5e1008381611ffb57611ffa613439565b5b0492506008810190505b612710831061202a5761271083816120205761201f613439565b5b0492506004810190505b6064831061204d576064838161204357612042613439565b5b0492506002810190505b600a831061205c576001810190505b80915050919050565b60006120868473ffffffffffffffffffffffffffffffffffffffff166121ec565b156121df578373ffffffffffffffffffffffffffffffffffffffff1663150b7a026120af6112d1565b8786866040518563ffffffff1660e01b81526004016120d194939291906136b9565b6020604051808303816000875af192505050801561210d57506040513d601f19601f8201168201806040525081019061210a919061371a565b60015b61218f573d806000811461213d576040519150601f19603f3d011682016040523d82523d6000602084013e612142565b606091505b506000815103612187576040517f08c379a000000000000000000000000000000000000000000000000000000000815260040161217e906135b2565b60405180910390fd5b805181602001fd5b63150b7a0260e01b7bffffffffffffffffffffffffffffffffffffffffffffffffffffffff1916817bffffffffffffffffffffffffffffffffffffffffffffffffffffffff1916149150506121e4565b600190505b949350505050565b6000808273ffffffffffffffffffffffffffffffffffffffff163b119050919050565b6000604051905090565b600080fd5b600080fd5b60007fffffffff0000000000000000000000000000000000000000000000000000000082169050919050565b61225881612223565b811461226357600080fd5b50565b6000813590506122758161224f565b92915050565b60006020828403121561229157612290612219565b5b600061229f84828501612266565b91505092915050565b60008115159050919050565b6122bd816122a8565b82525050565b60006020820190506122d860008301846122b4565b92915050565b600081519050919050565b600082825260208201905092915050565b60005b838110156123185780820151818401526020810190506122fd565b60008484015250505050565b6000601f19601f8301169050919050565b6000612340826122de565b61234a81856122e9565b935061235a8185602086016122fa565b61236381612324565b840191505092915050565b600060208201905081810360008301526123888184612335565b905092915050565b6000819050919050565b6123a381612390565b81146123ae57600080fd5b50565b6000813590506123c08161239a565b92915050565b6000602082840312156123dc576123db612219565b5b60006123ea848285016123b1565b91505092915050565b600073ffffffffffffffffffffffffffffffffffffffff82169050919050565b600061241e826123f3565b9050919050565b61242e81612413565b82525050565b60006020820190506124496000830184612425565b92915050565b61245881612413565b811461246357600080fd5b50565b6000813590506124758161244f565b92915050565b6000806040838503121561249257612491612219565b5b60006124a085828601612466565b92505060206124b1858286016123b1565b9150509250929050565b6000806000606084860312156124d4576124d3612219565b5b60006124e286828701612466565b93505060206124f386828701612466565b9250506040612504868287016123b1565b9150509250925092565b600080fd5b600080fd5b7f4e487b7100000000000000000000000000000000000000000000000000000000600052604160045260246000fd5b61255082612324565b810181811067ffffffffffffffff8211171561256f5761256e612518565b5b80604052505050565b600061258261220f565b905061258e8282612547565b919050565b600067ffffffffffffffff8211156125ae576125ad612518565b5b6125b782612324565b9050602081019050919050565b82818337600083830152505050565b60006125e66125e184612593565b612578565b90508281526020810184848401111561260257612601612513565b5b61260d8482856125c4565b509392505050565b600082601f83011261262a5761262961250e565b5b813561263a8482602086016125d3565b91505092915050565b600060ff82169050919050565b61265981612643565b811461266457600080fd5b50565b60008135905061267681612650565b92915050565b6000819050919050565b61268f8161267c565b811461269a57600080fd5b50565b6000813590506126ac81612686565b92915050565b60008060008060008060008060006101208a8c0312156126d5576126d4612219565b5b60008a013567ffffffffffffffff8111156126f3576126f261221e565b5b6126ff8c828d01612615565b99505060206127108c828d01612466565b98505060406127218c828d01612667565b97505060606127328c828d0161269d565b96505060806127438c828d0161269d565b95505060a06127548c828d01612466565b94505060c06127658c828d01612667565b93505060e06127768c828d0161269d565b9250506101006127888c828d0161269d565b9150509295985092959850929598565b600080600080608085870312156127b2576127b1612219565b5b60006127c0878288016123b1565b94505060206127d187828801612667565b93505060406127e28782880161269d565b92505060606127f38782880161269d565b91505092959194509250565b60006020828403121561281557612814612219565b5b600061282384828501612466565b91505092915050565b61283581612390565b82525050565b6000602082019050612850600083018461282c565b92915050565b61285f816122a8565b811461286a57600080fd5b50565b60008135905061287c81612856565b92915050565b6000806040838503121561289957612898612219565b5b60006128a785828601612466565b92505060206128b88582860161286d565b9150509250929050565b600067ffffffffffffffff8211156128dd576128dc612518565b5b6128e682612324565b9050602081019050919050565b6000612906612901846128c2565b612578565b90508281526020810184848401111561292257612921612513565b5b61292d8482856125c4565b509392505050565b600082601f83011261294a5761294961250e565b5b813561295a8482602086016128f3565b91505092915050565b6000806000806080858703121561297d5761297c612219565b5b600061298b87828801612466565b945050602061299c87828801612466565b93505060406129ad878288016123b1565b925050606085013567ffffffffffffffff8111156129ce576129cd61221e565b5b6129da87828801612935565b91505092959194509250565b600080604083850312156129fd576129fc612219565b5b6000612a0b85828601612466565b9250506020612a1c85828601612466565b9150509250929050565b7f4e487b7100000000000000000000000000000000000000000000000000000000600052602260045260246000fd5b60006002820490506001821680612a6d57607f821691505b602082108103612a8057612a7f612a26565b5b50919050565b7f4552433732313a20617070726f76616c20746f2063757272656e74206f776e6560008201527f7200000000000000000000000000000000000000000000000000000000000000602082015250565b6000612ae26021836122e9565b9150612aed82612a86565b604082019050919050565b60006020820190508181036000830152612b1181612ad5565b9050919050565b7f4552433732313a20617070726f76652063616c6c6572206973206e6f7420746f60008201527f6b656e206f776e6572206f7220617070726f76656420666f7220616c6c000000602082015250565b6000612b74603d836122e9565b9150612b7f82612b18565b604082019050919050565b60006020820190508181036000830152612ba381612b67565b9050919050565b7f4552433732313a2063616c6c6572206973206e6f7420746f6b656e206f776e6560008201527f72206f7220617070726f76656400000000000000000000000000000000000000602082015250565b6000612c06602d836122e9565b9150612c1182612baa565b604082019050919050565b60006020820190508181036000830152612c3581612bf9565b9050919050565b6000819050919050565b6000819050919050565b6000612c6b612c66612c6184612c3c565b612c46565b612390565b9050919050565b612c7b81612c50565b82525050565b6000602082019050612c966000830184612c72565b92915050565b7f4552433732313a20696e76616c696420746f6b656e2049440000000000000000600082015250565b6000612cd26018836122e9565b9150612cdd82612c9c565b602082019050919050565b60006020820190508181036000830152612d0181612cc5565b9050919050565b600081905092915050565b6000612d1e826122de565b612d288185612d08565b9350612d388185602086016122fa565b80840191505092915050565b6000612d508284612d13565b915081905092915050565b6000612d678286612d13565b9150612d738285612d13565b9150612d7f8284612d13565b9150819050949350505050565b612d958161267c565b82525050565b612da481612643565b82525050565b6000608082019050612dbf6000830187612d8c565b612dcc6020830186612d9b565b612dd96040830185612d8c565b612de66060830184612d8c565b95945050505050565b7f4552433732313a2061646472657373207a65726f206973206e6f74206120766160008201527f6c6964206f776e65720000000000000000000000000000000000000000000000602082015250565b6000612e4b6029836122e9565b9150612e5682612def565b604082019050919050565b60006020820190508181036000830152612e7a81612e3e565b9050919050565b6000612e8d8285612d13565b9150612e998284612d13565b91508190509392505050565b7f4f776e61626c653a206e6577206f776e657220697320746865207a65726f206160008201527f6464726573730000000000000000000000000000000000000000000000000000602082015250565b6000612f016026836122e9565b9150612f0c82612ea5565b604082019050919050565b60006020820190508181036000830152612f3081612ef4565b9050919050565b7f4552433732313a207472616e736665722066726f6d20696e636f72726563742060008201527f6f776e6572000000000000000000000000000000000000000000000000000000602082015250565b6000612f936025836122e9565b9150612f9e82612f37565b604082019050919050565b60006020820190508181036000830152612fc281612f86565b9050919050565b7f4552433732313a207472616e7366657220746f20746865207a65726f2061646460008201527f7265737300000000000000000000000000000000000000000000000000000000602082015250565b60006130256024836122e9565b915061303082612fc9565b604082019050919050565b6000602082019050818103600083015261305481613018565b9050919050565b7f4552433732313a206d696e7420746f20746865207a65726f2061646472657373600082015250565b60006130916020836122e9565b915061309c8261305b565b602082019050919050565b600060208201905081810360008301526130c081613084565b9050919050565b7f4552433732313a20746f6b656e20616c7265616479206d696e74656400000000600082015250565b60006130fd601c836122e9565b9150613108826130c7565b602082019050919050565b6000602082019050818103600083015261312c816130f0565b9050919050565b7f45524337323155524953746f726167653a2055524920736574206f66206e6f6e60008201527f6578697374656e7420746f6b656e000000000000000000000000000000000000602082015250565b600061318f602e836122e9565b915061319a82613133565b604082019050919050565b600060208201905081810360008301526131be81613182565b9050919050565b60008190508160005260206000209050919050565b60006020601f8301049050919050565b600082821b905092915050565b6000600883026132277fffffffffffffffffffffffffffffffffffffffffffffffffffffffffffffffff826131ea565b61323186836131ea565b95508019841693508086168417925050509392505050565b600061326461325f61325a84612390565b612c46565b612390565b9050919050565b6000819050919050565b61327e83613249565b61329261328a8261326b565b8484546131f7565b825550505050565b600090565b6132a761329a565b6132b2818484613275565b505050565b5b818110156132d6576132cb60008261329f565b6001810190506132b8565b5050565b601f82111561331b576132ec816131c5565b6132f5846131da565b81016020851015613304578190505b613318613310856131da565b8301826132b7565b50505b505050565b600082821c905092915050565b600061333e60001984600802613320565b1980831691505092915050565b6000613357838361332d565b9150826002028217905092915050565b613370826122de565b67ffffffffffffffff81111561338957613388612518565b5b6133938254612a55565b61339e8282856132da565b600060209050601f8311600181146133d157600084156133bf578287015190505b6133c9858261334b565b865550613431565b601f1984166133df866131c5565b60005b82811015613407578489015182556001820191506020850194506020810190506133e2565b868310156134245784890151613420601f89168261332d565b8355505b6001600288020188555050505b505050505050565b7f4e487b7100000000000000000000000000000000000000000000000000000000600052601260045260246000fd5b7f4f776e61626c653a2063616c6c6572206973206e6f7420746865206f776e6572600082015250565b600061349e6020836122e9565b91506134a982613468565b602082019050919050565b600060208201905081810360008301526134cd81613491565b9050919050565b7f4552433732313a20617070726f766520746f2063616c6c657200000000000000600082015250565b600061350a6019836122e9565b9150613515826134d4565b602082019050919050565b60006020820190508181036000830152613539816134fd565b9050919050565b7f4552433732313a207472616e7366657220746f206e6f6e20455243373231526560008201527f63656976657220696d706c656d656e7465720000000000000000000000000000602082015250565b600061359c6032836122e9565b91506135a782613540565b604082019050919050565b600060208201905081810360008301526135cb8161358f565b9050919050565b7f43616e6e6f74207472616e73666572202d2063757272656e746c79206c6f636b60008201527f6564000000000000000000000000000000000000000000000000000000000000602082015250565b600061362e6022836122e9565b9150613639826135d2565b604082019050919050565b6000602082019050818103600083015261365d81613621565b9050919050565b600081519050919050565b600082825260208201905092915050565b600061368b82613664565b613695818561366f565b93506136a58185602086016122fa565b6136ae81612324565b840191505092915050565b60006080820190506136ce6000830187612425565b6136db6020830186612425565b6136e8604083018561282c565b81810360608301526136fa8184613680565b905095945050505050565b6000815190506137148161224f565b92915050565b6000602082840312156137305761372f612219565b5b600061373e84828501613705565b9150509291505056fea26469706673582212200eba60a708f16cca2e292a476a17834c328dd2ad94b0de9bd810c55ba3ad7ca464736f6c63430008110033",
  "linkReferences": {},
  "deployedLinkReferences": {}
}